:2000000002195174182510F8A6810510E510B40503E4F51074182510F8E6F5812290500CC2
:20002000EFF022020E6AE4F5BFF5A875B28075B303F5B4F5B5F5B675C3FF75C2FF75C1FF9E
:2000400075C0FF75BF0375BF017E177FB0FD1218A97E177F6F0D1218A97E107F2D0D121898
:20006000A97E117FA70D1218A97E107FEA0D1218A97596FC7595A0759480E4F593F59D75BE
:200080009C03F59B759A03759203E59120E0FBE4F5927596FC7595A0759481F593F59DF5EF
:2000A0009CF59B759A01759203E59120E0FBE4F5927596FC759580759420759318F59DF5BD
:2000C0009C759B05759A55759203E59120E0FBE4F5927596FC759580759421759304F59DCC
:2000E000759C1FF59BF59A759203E59120E0FBE4F5927596FC759580759420759330759DC7
:2001000008F59CF59BF59A759203E59120E0FBE4F5927596FC759580759420759340F59DAD
:20012000F59CF59B759A20759203E59120E0FBE4F5927596FC7595A0759430759308F59DFD
:20014000F59CF59BF59A759203E59120E0FBE4F5927596FC7595A075943075930CF59DF584
:200160009CF59B759A01759203E59120E0FBE4F5927596FC7595A0759430759318F59DF5CC
:200180009C759BFD759AE8759203E59120E0FBE4F5927596FC7595A0759430F593F59DF5E0
:2001A0009C759BFD759AE8759203E59120E0FBE4F5927596FC7595A0759430759308F59D2D
:2001C000F59CF59B759AE2759203E59120E0FBE4F5927596FC7595A0759430759328F59D7B
:2001E000F59CF59BF59A759203E59120E0FBE4F5927596FC7595A075943075932CF59DF5C4
:200200009CF59B759A01759203E59120E0FBE4F5927596FC7595A0759430759320759D0197
:20022000759C29759B8B759AE0759203E59120E0FBE4F5927596FC7595A0759430759338EA
:20024000F59D759C04759BF5759A88759203E59120E0FBE4F5927596FC7595A07594307516
:200260009328F59DF59CF59B759AE2759203E59120E0FBE4F5927596FC7595A0759490757A
:2002800093C0F59DF59CF59B759A01759203E59120E0FBE4F5927593D0F59DF59CF59BF5E2
:2002A0009A759203E59120E0FBE4F5927593CCF59DF59CF59B759AB3759203E59120E0FBFA
:2002C000E4F5927593E0F59DF59CF59B759A01759203E59120E0FBE4F5927593D4F59DF5BF
:2002E0009CF59B759A01759203E59120E0FBE4F5927596FC7595A0759481759320759D5512
:20030000759C43759B32759A11759203E59120E0FBE4F5927596FC7595A0759481759324DA
:20032000759D0A759C99759B87759A76759203E59120E0FBE4F5927596FC7595A0759481BA
:20034000759328759D55759C43759B32759A11759203E59120E0FBE4F5927596FC7595A0B9
:2003600075948175932C759D0A759C99759B87759A76759203E59120E0FBE4F5927596FCF0
:200380007595A0759481759334F59DF59CF59B759A04759203E59120E0FBE4F5927596FC3A
:2003A0007595A075948175936C759D55759C43759B32759A11759203E59120E0FBE4F59292
:2003C0007596FC7595A0759481759370759D0A759C99759B87759A76759203E59120E0FB0D
:2003E000E4F5927596FC7595A0759481759374759D55759C43759B32759A11759203E5913E
:2004000020E0FBE4F5927596FC7595A0759481759378759D0A759C99759B87759A767592D2
:2004200003E59120E0FBE4F5927596FC7595A0759481759380F59DF59CF59B759A807592D1
:2004400003E59120E0FBE4F5927596FC7595A0759481759390759D55759C43759B32759ADE
:2004600011759203E59120E0FBE4F5927596FC7595A0759481759394759D0A759C99759BD8
:2004800087759A76759203E59120E0FBE4F5927596FC7595A0759481759398759D55759C17
:2004A00043759B32759A11759203E59120E0FBE4F5927596FC7595A075948175939C759DC0
:2004C0000A759C99759B87759A76759203E59120E0FBE4F5927596FC7595A0759481759323
:2004E000A4F59DF59CF59B759A80759203E59120E0FBE4F59275A890F51085188122EF301F
:20050000E40620E5030206C57596FD75955175941F7593B0759DC5759CAC759BCE759A5503
:20052000759203E59120E0FBE4F59275941CF593F59DF59CF59B759A03759203E59120E0E3
:20054000FBE4F592759414759A8A759203E59120E0FBE4F592759304759A8B759203E59173
:2005600020E0FBE4F59275941E759A27759203E59120E0FBE4F592DD02C1BE75943F759324
:20058000B0759DC5759CAC759BCE759A55759203E59120E0FBE4F59275943CF593F59DF59B
:2005A0009CF59B759A03759203E59120E0FBE4F592759434759A8A759203E59120E0FBE4E2
:2005C000F592759304759A8B759203E59120E0FBE4F59275943E759A27759203E59120E00B
:2005E000FBE4F592DD02C1BE75945F7593B0759DC5759CAC759BCE759A55759203E59120A1
:20060000E0FBE4F59275945CF593F59DF59CF59B759A03759203E59120E0FBE4F5927594F3
:2006200054759A8A759203E59120E0FBE4F592759304759A8B759203E59120E0FBE4F5925B
:2006400075945E759A27759203E59120E0FBE4F592DD02C1BE75947F7593B0759DC5759C91
:20066000AC759BCE759A55759203E59120E0FBE4F59275947CF593F59DF59CF59B759A03D4
:20068000759203E59120E0FBE4F592759474759A8A759203E59120E0FBE4F59275930475F7
:2006A0009A8B759203E59120E0FBE4F59275947E759A27759203E59120E0FBE4F592EFD2CB
:2006C000E4C2E5FF229050807596FD759551759410759300759201E4F59DF59CF59BF59A5C
:2006E000E59130E1FBE4F592759203A8A3A9A2E59120E0FBE4F592759304759201E59130D7
:20070000E1FBE4F592759203C3E935A2F0A3E835A3F0A3E59120E0FBE4F592DD030207F664
:20072000759430759300759201E59130E1FBE4F592759203A8A3A9A2E59120E0FBE4F59207
:20074000759304759201E59130E1FBE4F592759203C3E935A2F0A3E835A3F0A3E59120E0AF
:20076000FBE4F592DD030207F6759450759300759201E59130E1FBE4F592759203A8A3A9E0
:20078000A2E59120E0FBE4F592759304759201E59130E1FBE4F592759203C3E935A2F0A3BA
:2007A000E835A3F0A3E59120E0FBE4F592DD030207F6759470759300759201E59130E1FB20
:2007C000E4F592759203A8A3A9A2E59120E0FBE4F592759304759201E59130E1FBE4F59231
:2007E000759203C3E935A2F0A3E835A3F0A3E59120E0FBE4F592EFD2E5FF227596FC7595D2
:2008000080759423759318E4F59DF59CF59B759A01759203E59120E0FBE4F59275B1807564
:20082000B10075820274782DF583E0FE7582107596FC7595D0759400759370E0F59DA3E041
:20084000F59CA3E0F59BA3E0F59A759203E59120E0FBE4F592A3759374E0F59DA3E0F59C57
:20086000A3E0F59BA3E0F59A759203E59120E0FBE4F592A3759378E0F59DA3E0F59CA3E041
:20088000F59BA3E0F59A759203E59120E0FBE4F592A375937CE0F59DA3E0F59CA3E0F59B10
:2008A000A3E0F59A759203E59120E0FBE4F592A3759320E0F59DA3E0F59CA3E0F59BA3E059
:2008C000F59A759203E59120E0FBE4F592A37595A0759482759394E0F59DA3E0F59CA3E026
:2008E000F59BA3E0F59A759203E59120E0FBE4F592759580759423759318759201E59130EC
:20090000E1FBE4F592E5A130E1F075942475930C759201E59130E1FBE4F592E5A230E4F048
:200920007595A0759482759390F59DF59CF59B04F59A759203E59120E0FBE4F59275948035
:20094000759304759201E59130E1FBE4F592E5A330E0F07595D0759404759201E59130E198
:20096000FBE4F592E5A3F9EE30E077E930E125759404E4F59DF59CF59BF59A759203E59149
:2009800020E0FBE4F592759408759203E59120E0FBE4F592759404E4F59DF59CF59B759A47
:2009A00007759203E59120E0FBE4F592759408759203E59120E0FBE4F59275930C75920137
:2009C000E59130E1FBE4F592E5A130E0F0759404759201E59130E1FBE4F592E5A130E0F01C
:2009E000802AE920E126759404E4F59D759C02F59BF59A759203E59120E0FBE4F592759499
:200A000008759203E59120E0FBE4F5927595A0759480759308E4F59D759C01F59BF59A7589
:200A20009203E59120E0FBE4F592759304759201E59130E1FBE4F592E5A330E1ED759308AE
:200A4000E4F59D759C02F59BF59A759203E59120E0FBE4F5927596FC759580759423759343
:200A600018E4F59DF59CF59BF59A759203E59120E0FBE4F592759422759308759A01759200
:200A800003E59120E0FBE4F592F59A759203E59120E0FBE4F592EDFF22EF30E05B905800B2
:200AA000E0905010F0905801E0905011F0905802E0905012F0905010E0FE905001E0C39E30
:200AC00050059050108010905011E0FE905001E0D39E4008905011E0905001F090502CE06A
:200AE00030E115905012E0FE905001E0D39E4008905012E0905001F0EF30E15B905804E0BC
:200B0000905014F0905805E0905015F0905806E0905016F0905014E0FE905005E0C39E5043
:200B2000059050148010905015E0FE905005E0D39E4008905015E0905005F090502CE03015
:200B4000E115905016E0FE905005E0D39E4008905016E0905005F0EF30E25B905808E090E6
:200B60005018F0905809E0905019F090580AE090501AF0905018E0FE905009E0C39E500552
:200B80009050188010905019E0FE905009E0D39E4008905019E0905009F090502CE030E1C5
:200BA0001590501AE0FE905009E0D39E400890501AE0905009F0EF30E35490580CE0905009
:200BC0001CF090580DE090501DF090580EE090501EF0C2AF7596FC7595A07594907593CCF4
:200BE000E0E4FCFDFEFF78181218538F9DE0E4FCFDFEFF78101218668F9CE0E4F59BE0F5DC
:200C00009A759203E59120E0FBE4F592D2AF2275821074702BF5837596FC7595A0759481E8
:200C2000759358E0F59DA3E0F59CA3E0F59BA3E0F59A759203E59120E0FBE4F59275935C5F
:200C4000A3E0F59DA3E0F59CA3E0F59BA3E0F59A759203E59120E0FBE4F592A375948275BD
:200C600093ECE0F59DA3E0F59CA3E0F59BA3E0F59A759203E59120E0FBE4F5927594837563
:200C8000930C759203E59120E0FBE4F592A3759481759368E0F59DA3E0F59CA3E0F59BA3F6
:200CA000E0F59A759203E59120E0FBE4F59275938C759203E59120E0FBE4F592A375937C3E
:200CC000E0F59DA3E0F59CA3E0F59BA3E0F59A759203E59120E0FBE4F5927593A0759203D1
:200CE000E59120E0FBE4F592E4759480759308F59DF59CF59B759A02759203E59120E0FB5C
:200D0000E4F592759481759354EBD39DE4400104F59A759203E59120E0FBE4F592EFD2E6E2
:200D200030E31820E715D2E7FF759360759A0F759203E59120E0FBE4F59222FF2274602B06
:200D4000F5837582407596FC7595A0759481759308E0F59DA3E0F59CA3E0F59BA3E0F59AEE
:200D6000759203E59120E0FBE4F59275930CA3E0F59DA3E0F59CA3E0F59BA3E0F59A759224
:200D800003E59120E0FBE4F592759310A3E0F59DA3E0F59CA3E0F59BA3E0F59A759203E51F
:200DA0009120E0FBE4F592A37594827593ACE0F59DA3E0F59CA3E0F59BA3E0F59A759203A5
:200DC000E59120E0FBE4F5927593CC759203E59120E0FBE4F592A375948175931CE0F59DBA
:200DE000A3E0F59CA3E0F59BA3E0F59A759203E59120E0FBE4F592A3759330E0F59DA3E004
:200E0000F59CA3E0F59BA3E0F59A759203E59120E0FBE4F592759480759308E4F59DF59C96
:200E2000F59B759A01759203E59120E0FBE4F592759481759304EBD39DE4400104F59A750E
:200E40009203E59120E0FBE4F592EFD2E630E31820E715D2E7FF759314759A03759203E55E
:200E60009120E0FBE4F59222FF22C0E0C0F0C083C082C0D075D008E5BA30E0447596FC7517
:200E800095A075943075930C759203E59120E0FB759200905020E030E011E030E20DE0FF6F
:200EA000A3E0FD1204FE905020EFF0905024E030E00EE030E20AE0FF1216AE905024EFF029
:200EC000E5BA30E1577596FC7595A075943075932C759203E59120E0FB759200905028E083
:200EE00030E00EE030E20AE0FF120F54905028EFF090502CE030E0247596FC7595A07594C3
:200F0000907593EC759201E59130E1FB75920090500BE5A1F090502CE04420F0E5B930E766
:200F200028E5B9540F75F003A42423F582E43418F583740193FA740293F912187A85B9B17F
:200F400075B10085B9BE75BE00D0D0D082D083D0F0D0E032EF30E40620E503020FB2759676
:200F6000FC7595D0759402759360E4759D70F59CF59BF59A759203E59120E0FBE4F592F537
:200F80009D759364759203E59120E0FBE4F592759368759203E59120E0FBE4F59275936C98
:200FA000759203E59120E0FBE4F592EFD2E4C2E5FF229050D07596FC7595D075940275933A
:200FC00064759201E4F59DF59CF59BF59AE59130E1FBE4F592759203A8A3A9A2E59120E07C
:200FE000FBE4F592759368759201E59130E1FBE4F592759203C3E935A2F0A3E835A3F0A3B3
:20100000E59120E0FBE4F59275936C759201E59130E1FBE4F592759203E5A3F0A3E5A4F0ED
:20102000E59120E0FBE4F592EFD2E5FF22905020E030E610E5BA30E406E054BFF0800512D4
:20104000000380E9905020E030E244E030E540905000E0FF905021E0FD121715905001EF0E
:20106000F0905020E054DFF0905011E0FF905001E0D39F40059050118010905010E0FF9055
:201080005001E0C39F5008905010E0905001F090502CE030E115905012E0FF905001E0D34D
:2010A0009F4008905012E0905001F0905001E0FF905000E06F602D905020E030E020C2AFA9
:2010C000E0FF905000E0FDA3E0FB120D3D905020EFF0D2AF905001E0905000F08006905043
:2010E00000E0A3F012000302102D905028E030E25BE030E557905008E0FF1215D4905009DD
:20110000EFF0905028E054DFF0905019E0FF905009E0D39F40059050198010905018E0FF2D
:20112000905009E0C39F5008905018E0905009F090502CE030E11590501AE0FF905009E0C7
:20114000D39F400890501AE0905009F0905009E0FF905008E06F6049905028E030E03CC284
:20116000AF7596FDE4F5957594F0759304759201E59130E1FBE4F592E5A1701BE5B970171A
:20118000905008E0FFA3E0FD1207FB905008EFF0905028E054EFF0D2AF8006905008E0A3A0
:2011A000F01200030210EA905024E030E610E5BA30E606E054BFF0800512000380E99050A3
:2011C00024E030E23FE030E53B905004E0FF1217EF905005EFF0905024E054DFF0905015EF
:2011E000E0FF905005E0D39F40059050158010905014E0FF905005E0C39F5008905014E0E9
:20120000905005F090502CE030E115905016E0FF905005E0D39F4008905016E0905005F0E8
:20122000905005E0FF905004E06F602D905024E030E020C2AFE0FF905004E0FDA3E0FB1275
:201240000C0F905024EFF0D2AF905005E0905004F08006905004E0A3F01200030211A7EFDB
:2012600030E34590502430E00AE04404F0E054EFF08004E054FBF0EF30E10590502480445D
:20128000905024E05477F0C2AF7596FC7595A0759481759360E4F59DF59CF59BF59A75926E
:2012A00003E59120E0FB8047EF90502030E00AE04404F0E054EFF08004E054FBF0EF30E11C
:2012C00008905020E04408F022905020E05477F0C2AF7596FC7595A0759481759314E4F58C
:2012E0009DF59CF59BF59A759203E59120E0FBE4F592D2AF22905024E030E7317596FC7570
:2013000095A0759481759360E4F59DF59CF59BF59A759203E59120E0FBE4F59275935475C9
:201320009A01759203E59120E0FBE4F592905024E0546EF07596FC7595A075948075930C48
:20134000759201E59130E1FBE4F592E5A45403FFEF70EDE5A370E9E5A254C070E3E5A154C4
:20136000F070DD7596FC7595A0759481759350F59DF59CF59BF59A759203E59120E0FBE4FC
:20138000F59222C2AFE4F5BF7596FC7595A0759481759314F59DF59CF59BF59A759203E513
:2013A0009120E0FBE4F592759360759203E59120E0FBE4F592F593759203E59120E0FBE401
:2013C000F592759350759203E59120E0FBE4F5927596FC7595A075948075930C759201E50D
:2013E0009130E1FBE4F592E5A45403FFEF70EDE5A370E9E5A270E5E5A170E175B181F5B1D9
:20140000E5B160FC22905020E030E7487596FC7595A0759481759314E4F59DF59CF59BF596
:201420009A759203E59120E0FBE4F59275948075930C759201E59130E1FBE4F592E5A154C0
:201440000F70EF759304759A01759203E59120E0FBE4F592905020E0546EF0905028E0544E
:20146000EEF07596FC7595A075948075930C759201E59130E1FBE4F592E5A2543F70EFE5ED
:20148000A1540F70E9229050217401F07596FC7595A07594827593A0E4F59DF59CF59B7577
:2014A0009A04759203E59120E0FBE4F5927593C0759A06759203E59120E0FBE4F592905005
:2014C00020E030E322E5BA30E41D759481759314759A03759203E59120E0FBE4F592905089
:2014E00020E04481F08007905020E04401F0905028E04401F0229050217402F07596FC7579
:2015000095A07594827593A0E4F59DF59CF59BF59A759203E59120E0FBE4F5927593C0751A
:201520009A06759203E59120E0FBE4F592905020E030E322E5BA30E41D7594817593147525
:201540009A03759203E59120E0FBE4F592905020E04481F08007905020E04401F0905028CF
:20156000E04401F0229050217403F07596FC7595A07594827593A0E4F59DF59CF59BF59AC2
:20158000759203E59120E0FBE4F5927593C0759A04759203E59120E0FBE4F592905020E0C4
:2015A00030E322E5BA30E41D759481759314759A03759203E59120E0FBE4F592905020E0A8
:2015C0004481F08007905020E04401F0905028E04401F0229050D0E0F9A3E0F8A3E0FBA356
:2015E000E0FAEF2478F583758204E0FCA3E0FEE9D39EE89C400775820CE0FF803FA3E0FC71
:20160000A3E0FEEBD39EEA9C400775820CE0FF802BA3E0FCA3E0D399EC984020A3E0FCA31F
:20162000E0D39BEC9A401575820DE0FEA3E0FC905074E004F0D39C500122EEFF905074E4F1
:20164000F0229050217404F07596FC7595A07594827593A0E4F59DF59CF59BF59A759203FB
:20166000E59120E0FBE4F5927593C0759203E59120E0FBE4F592905020E030E322E5BA30FC
:20168000E41D759481759314759A03759203E59120E0FBE4F592905020E04481F0800790FF
:2016A0005020E04401F0905028E04401F022EF30E40520E5028025E47596FAF595F5947541
:2016C000937CF59DF59CF59BF59A759203E59120E0FBE4F592EFD2E4C2E5FF22E47596FA7D
:2016E000F595F59475937C9050C0759201E4F59DF59CF59BF59AE59130E1FBE4F592759291
:2017000003E5A2F0A3E5A3F0E59120E0FBE4F592EFD2E5FF22E4F8F9905080E0FBA3E0FA04
:20172000EED399EA984004EBF9EAF8A3DDEDEF2460F583758204E0FAA3E0FBE9D39BE89A3F
:20174000400775820CE0FF8020A3E0FAA3E0D399EA98401575820DE0FEA3E0FC905070E0EC
:2017600004F0D39C500122EEFF905070E4F02290502CE030E535E030E11690501CE0FF90B8
:20178000500BE0C39F501D90502CE054FDF0801490501DE0FF90500BE0D39F400790502C12
:2017A000E04402F090502CE054DFF012000380BFE5B96030E5B920E72BE5B9540FFFE5B914
:2017C000C4540F75F003A42418F582E43419F583740193FA740293F5828A8312187E85B905
:2017E000BEE4F5BE75BF0375BF0112000380C19050C0E0F9A3E0F8EF2470F583758204E008
:20180000FCA3E0D399EC98400775820CE0FF8012A3E0FCA3E0FEE9D39EE89C400575820D77
:20182000E0FF22FF195DFF1383FF1880FF12F5FF1486FF14F6FF1565FF1642FF1405FF195E
:201840005DFF195DFF195DFF195DFF195DFF195DFF195DE8600FECC313FCED13FDEE13FE5C
:20186000EF13FFD8F122E86010ECA2E713FCED13FDEE13FEEF13FFD8F0228A838982E4734A
:201880007596FC7595A0759481759350E4F59DF59CF59B759A01759203E59120E0FBE4F5BA
:2018A00092905024E04401F022EDC43354E02431FC74182DF8A604AC07EDC43354E0243078
:2018C000F8A604AF06EDC43354E02431F8A60722905010E0FEEFC39E400DA3E0FEEFD39E31
:2018E0005005905001EFF022905014E0FEEFC39E400DA3E0FEEFD39E5005905005EFF02226
:20190000905018E0FEEFC39E400DA3E0FEEFD39E5005905009EFF022FF0A99FF18D0FF1894
:20192000E8FF1900FF001DFF125FFF1930FF1944EF9050286009E04404F0E054EFF022E0EA
:2019400054FBF022EF90502C60047401F022E4F022787FE4F6D8FD7581CF02002622000095
:20196000000000000000000000000000000000000000000000000000000000000000000067
:20198000000000000000000000000000000000000000000000000000000000000000000047
:2019A000000000000000000000000000000000000000000000000000000000000000000027
:2019C000000000000000000000000000000000000000000000000000000000000000000007
:205000000101000000000000030300000000000000050300000301000003030074A0B300AF
:2050200004040000040000000500000001000000000000000000000000000000000000005E
:20504000000000000000000000000000000000000000000000000000000000000000000050
:20506000000000000000000000000000000000000000000000000000000000000000000030
:20508000000000000000000000000000000000000000000000000000000000000000000010
:2050A0000000000000000000000000000000000000000000000000000000000000000000F0
:2058000000050300000301000003030074A0B30000000000000000000000000000000000AF
:20582000000000000000000000000000000000000000000000000000000000000000000068
:20584000000000000000000000000000000000000000000000000000000000000000000048
:20586000000000000000000000000000000000000000000000000000000000000000000028
:20588000000000000000000000000000000000000000000000000000000000000000000008
:2060000000D001001964FFFF00000000010000000000000000000000000000000000000033
:20602000000000000000000000000000000000000000000000000000000000000000000060
:2060400000241A0D000001310000032B000000031549C090000015B9000000000000000016
:20606000000000000000000000000000000000000000000000000000000000000000000020
:20608000000000000000000000000000000000000000000000000000000000000000000000
:2060A0000000000000000000000000000000000000000000000000000000000000000000E0
:2060C0000000000000000000000000000000000000000000000000000000000000000000C0
:2060E0000000000000000000000000000000000000000000000000000000000000000000A0
:2061000001A0020032C8130BFFFFFFFF0300020000000000000000000000000000000000C3
:2061200000000000000000000000000000000000000000000000000000000000000000005F
:206140000024340D000001330000012B000000071565F090000015B90000000000000000AB
:2061600000000000000000000000000000000000000000000000000000000000000000001F
:206180000000000000000000000000000000000000000000000000000000000000000000FF
:2061A0000000000000000000000000000000000000000000000000000000000000000000DF
:2061C0000000000000000000000000000000000000000000000000000000000000000000BF
:2061E00000000000000000000000000000000000000000000000000000000000000000009F
:2062000002D8000058DE2153FFFFFFFF0401010000000000000000000000000000000000F8
:2062200000000000000000000000000000000000000000000000000000000000000000005E
:2062400000245D0D00000166000001390000000B156DF090000015B9000000000000000034
:2062600000000000000000000000000000000000000000000000000000000000000000001E
:206280000000000000000000000000000000000000000000000000000000000000000000FE
:2062A0000000000000000000000000000000000000000000000000000000000000000000DE
:2062C0000000000000000000000000000000000000000000000000000000000000000000BE
:2062E00000000000000000000000000000000000000000000000000000000000000000009E
:2063000003400000789B2616FFFFFFFF0402000000000000000000000000000000000000E9
:2063200000000000000000000000000000000000000000000000000000000000000000005D
:206340000024680D00000177000001390000000D155AD100000015B90000000000000000D7
:2063600000000000000000000000000000000000000000000000000000000000000000001D
:206380000000000000000000000000000000000000000000000000000000000000000000FD
:2063A0000000000000000000000000000000000000000000000000000000000000000000DD
:2063C0000000000000000000000000000000000000000000000000000000000000000000BD
:2063E00000000000000000000000000000000000000000000000000000000000000000009D
:206400000404000099B94E6EFFFFFFFF050300000000000000000000000000000000000062
:2064200000000000000000000000000000000000000000000000000000000000000000005C
:206440000024808D00000299000001510000000F15570100000015B90000000000000000D4
:2064600000000000000000000000000000000000000000000000000000000000000000001C
:206480000000000000000000000000000000000000000000000000000000000000000000FC
:2064A0000000000000000000000000000000000000000000000000000000000000000000DC
:2064C0000000000000000000000000000000000000000000000000000000000000000000BC
:2064E00000000000000000000000000000000000000000000000000000000000000000009C
:2065000004780000FFFF68BCFFFFFFFF0504000000000000000000000000000000000000D8
:2065200000000000000000000000000000000000000000000000000000000000000000005B
:2065400000248F0D000002AA00000151000000141565F100000015D9000000000000000010
:2065600000000000000000000000000000000000000000000000000000000000000000001B
:206580000000000000000000000000000000000000000000000000000000000000000000FB
:2065A0000000000000000000000000000000000000000000000000000000000000000000DB
:2065C0000000000000000000000000000000000000000000000000000000000000000000BB
:2070000000360000002AFFFF0000000001000000000004D30000001D0000000108010118FA
:207020000000008000000000000000000000000000000000000000000000000000000000D0
:20704000000000000000000000000000000000000000000000000000000000000000000030
:20706000000000000000000000000000000000000000000000000000000000000000000010
:207080000000000000000000000000000000000000000000000000000000000000000000F0
:2070A0000000000000000000000000000000000000000000000000000000000000000000D0
:2070C0000000000000000000000000000000000000000000000000000000000000000000B0
:2070E000000000000000000000000000000000000000000000000000000000000000000090
:207100000078000000BB0A120000000002000000000002080000001D0000000108010118D4
:207120000000008000000000000000000000000000000000000000000000000000000000CF
:2071400000000000000000000000000000000000000000000000000000000000000000002F
:2071600000000000000000000000000000000000000000000000000000000000000000000F
:207180000000000000000000000000000000000000000000000000000000000000000000EF
:2071A0000000000000000000000000000000000000000000000000000000000000000000CF
:2071C0000000000000000000000000000000000000000000000000000000000000000000AF
:2071E00000000000000000000000000000000000000000000000000000000000000000008F
:2072000000B4000000D20BCF0000000003010000000001450000022500000001080101187A
:207220000000008000000000000000000000000000000000000000000000000000000000CE
:2072400000000000000000000000000000000000000000000000000000000000000000002E
:2072600000000000000000000000000000000000000000000000000000000000000000000E
:207280000000000000000000000000000000000000000000000000000000000000000000EE
:2072A0000000000000000000000000000000000000000000000000000000000000000000CE
:2072C0000000000000000000000000000000000000000000000000000000000000000000AE
:2072E00000000000000000000000000000000000000000000000000000000000000000008E
:207300000168000000001E36000000000302000000000082000002390000000108010118CB
:207320000000008000000000000000000000000000000000000000000000000000000000CD
:2073400000000000000000000000000000000000000000000000000000000000000000002D
:2073600000000000000000000000000000000000000000000000000000000000000000000D
:207380000000000000000000000000000000000000000000000000000000000000000000ED
:2073A0000000000000000000000000000000000000000000000000000000000000000000CD
:20780000003600000D6300C5000000000300FF0052220404086557082260300C7FC320147F
:207820008010FB90000000130000000000000000000000000000000000000000000000001A
:20784000000000000000000000000000000000000000000000000000000000000000000028
:20786000000000000000000000000000000000000000000000000000000000000000000008
:207880000000000000000000000000000000000000000000000000000000000000000000E8
:2078A0000000000000000000000000000000000000000000000000000000000000000000C8
:2078C0000000000000000000000000000000000000000000000000000000000000000000A8
:2078E000000000000000000000000000000000000000000000000000000000000000000088
:20790000007800001DC101B70B7100A403000500533308061065570F326060197FC69014CE
:207920005010FB900000000800000000000000000000000000000000000000000000000054
:20794000000000000000000000000000000000000000000000000000000000000000000027
:20796000000000000000000000000000000000000000000000000000000000000000000007
:207980000000000000000000000000000000000000000000000000000000000000000000E7
:2079A0000000000000000000000000000000000000000000000000000000000000000000C7
:2079C0000000000000000000000000000000000000000000000000000000000000000000A7
:2079E000000000000000000000000000000000000000000000000000000000000000000087
:207A000000B401002CA10293149900F703010A0054550E0A1F65571D5360B0327FCD2024BF
:207A20003010FB900000000500000000000000000000000000000000000000000000000076
:207A4000000000000000000000000000000000000000000000000000000000000000000026
:207A6000000000000000000000000000000000000000000000000000000000000000000006
:207A80000000000000000000000000000000000000000000000000000000000000000000E6
:207AA0000000000000000000000000000000000000000000000000000000000000000000C6
:207AC0000000000000000000000000000000000000000000000000000000000000000000A6
:207AE000000000000000000000000000000000000000000000000000000000000000000086
:207B000001680100FFFFFFFF149900F703011400558816103265572F746120547FD5E03472
:207B20002010FB900000000200000000000000000000000000000000000000000000000088
:207B4000000000000000000000000000000000000000000000000000000000000000000025
:207B6000000000000000000000000000000000000000000000000000000000000000000005
:207B80000000000000000000000000000000000000000000000000000000000000000000E5
:207BA0000000000000000000000000000000000000000000000000000000000000000000C5
:00000001FF
